{
  "abi": [
    {
      "inputs": [
        {
          "internalType": "uint256",
          "name": "entranceFee",
          "type": "uint256"
        },
        {
          "internalType": "uint256",
          "name": "interval",
          "type": "uint256"
        },
        {
          "internalType": "address",
          "name": "vrfCordinator",
          "type": "address"
        },
        {
          "internalType": "bytes32",
          "name": "gasLane",
          "type": "bytes32"
        },
        {
          "internalType": "uint64",
          "name": "subscriptionId",
          "type": "uint64"
        },
        {
          "internalType": "uint32",
          "name": "callbackGasLimit",
          "type": "uint32"
        }
      ],
      "stateMutability": "nonpayable",
      "type": "constructor"
    },
    {
      "inputs": [
        {
          "internalType": "address",
          "name": "have",
          "type": "address"
        },
        {
          "internalType": "address",
          "name": "want",
          "type": "address"
        }
      ],
      "name": "OnlyCoordinatorCanFulfill",
      "type": "error"
    },
    {
      "inputs": [],
      "name": "Raffle__NotEnoughtEthSent",
      "type": "error"
    },
    {
      "inputs": [],
      "name": "Raffle__RafleIsNotOpened",
      "type": "error"
    },
    {
      "inputs": [],
      "name": "Raffle__TransferFailed",
      "type": "error"
    },
    {
      "inputs": [
        {
          "internalType": "uint256",
          "name": "addressBalance",
          "type": "uint256"
        },
        {
          "internalType": "uint256",
          "name": "playersCount",
          "type": "uint256"
        },
        {
          "internalType": "enum Raffle.RaffleState",
          "name": "RaffleState",
          "type": "uint8"
        }
      ],
      "name": "Raffle__UpkeepNotNeeded",
      "type": "error"
    },
    {
      "anonymous": false,
      "inputs": [
        {
          "indexed": true,
          "internalType": "address",
          "name": "player",
          "type": "address"
        }
      ],
      "name": "EnteredRaffle",
      "type": "event"
    },
    {
      "anonymous": false,
      "inputs": [
        {
          "indexed": false,
          "internalType": "address",
          "name": "winner",
          "type": "address"
        }
      ],
      "name": "PickedWinner",
      "type": "event"
    },
    {
      "anonymous": false,
      "inputs": [
        {
          "indexed": true,
          "internalType": "uint256",
          "name": "requestId",
          "type": "uint256"
        }
      ],
      "name": "RequestedRaffleWinner",
      "type": "event"
    },
    {
      "inputs": [
        {
          "internalType": "bytes",
          "name": "",
          "type": "bytes"
        }
      ],
      "name": "checkUpkeep",
      "outputs": [
        {
          "internalType": "bool",
          "name": "upkeepNeeded",
          "type": "bool"
        },
        {
          "internalType": "bytes",
          "name": "performData",
          "type": "bytes"
        }
      ],
      "stateMutability": "view",
      "type": "function"
    },
    {
      "inputs": [],
      "name": "enterRaffle",
      "outputs": [],
      "stateMutability": "payable",
      "type": "function"
    },
    {
      "inputs": [],
      "name": "getEntranceFee",
      "outputs": [
        {
          "internalType": "uint256",
          "name": "",
          "type": "uint256"
        }
      ],
      "stateMutability": "view",
      "type": "function"
    },
    {
      "inputs": [],
      "name": "getLastTimeStamp",
      "outputs": [
        {
          "internalType": "uint256",
          "name": "",
          "type": "uint256"
        }
      ],
      "stateMutability": "view",
      "type": "function"
    },
    {
      "inputs": [],
      "name": "getLengthOfPlayers",
      "outputs": [
        {
          "internalType": "uint256",
          "name": "",
          "type": "uint256"
        }
      ],
      "stateMutability": "view",
      "type": "function"
    },
    {
      "inputs": [
        {
          "internalType": "uint256",
          "name": "indexOfPlayer",
          "type": "uint256"
        }
      ],
      "name": "getPlayer",
      "outputs": [
        {
          "internalType": "address",
          "name": "",
          "type": "address"
        }
      ],
      "stateMutability": "view",
      "type": "function"
    },
    {
      "inputs": [],
      "name": "getRaffleState",
      "outputs": [
        {
          "internalType": "enum Raffle.RaffleState",
          "name": "",
          "type": "uint8"
        }
      ],
      "stateMutability": "view",
      "type": "function"
    },
    {
      "inputs": [],
      "name": "getRecentWinner",
      "outputs": [
        {
          "internalType": "address",
          "name": "",
          "type": "address"
        }
      ],
      "stateMutability": "view",
      "type": "function"
    },
    {
      "inputs": [
        {
          "internalType": "bytes",
          "name": "",
          "type": "bytes"
        }
      ],
      "name": "performUpkeep",
      "outputs": [],
      "stateMutability": "nonpayable",
      "type": "function"
    },
    {
      "inputs": [
        {
          "internalType": "uint256",
          "name": "requestId",
          "type": "uint256"
        },
        {
          "internalType": "uint256[]",
          "name": "randomWords",
          "type": "uint256[]"
        }
      ],
      "name": "rawFulfillRandomWords",
      "outputs": [],
      "stateMutability": "nonpayable",
      "type": "function"
    }
  ],
  "bytecode": {
    "object": "0x61016060405234801561001157600080fd5b50604051610cf9380380610cf983398101604081905261003091610087565b6001600160a01b0393909316608081905260a09590955260c0939093524260005560e093909352610100929092526001600160401b03166101205263ffffffff16610140526002805460ff60a01b19169055610112565b60008060008060008060c087890312156100a057600080fd5b86516020880151604089015191975095506001600160a01b03811681146100c657600080fd5b6060880151608089015191955093506001600160401b03811681146100ea57600080fd5b60a088015190925063ffffffff8116811461010457600080fd5b809150509295509295509295565b60805160a05160c05160e051610100516101205161014051610b79610180600039600061047b0152600061044801526000610419015260006104ac0152600081816103d5015261055d01526000818160a501526102c00152600081816101fe01526102400152610b796000f3fe6080604052600436106100915760003560e01c80634585e33b116100595780634585e33b1461013e578063473f1ddc1461015e5780636e04ff0d14610190578063c1c244e8146101be578063e55ae4e8146101d357600080fd5b806309bc33a7146100965780630ea3df38146100d8578063115cbaf5146100ed5780631fe543e3146101145780632cfcc53914610136575b600080fd5b3480156100a257600080fd5b507f00000000000000000000000000000000000000000000000000000000000000005b6040519081526020015b60405180910390f35b3480156100e457600080fd5b506001546100c5565b3480156100f957600080fd5b50600254600160a01b900460ff166040516100cf9190610829565b34801561012057600080fd5b5061013461012f366004610884565b6101f3565b005b610134610280565b34801561014a57600080fd5b50610134610159366004610936565b61036c565b34801561016a57600080fd5b506002546001600160a01b03165b6040516001600160a01b0390911681526020016100cf565b34801561019c57600080fd5b506101b06101ab3660046109a8565b610555565b6040516100cf929190610a3d565b3480156101ca57600080fd5b506000546100c5565b3480156101df57600080fd5b506101786101ee366004610a95565b610600565b336001600160a01b037f000000000000000000000000000000000000000000000000000000000000000016146102725760405163073e64fd60e21b81523360048201526001600160a01b037f00000000000000000000000000000000000000000000000000000000000000001660248201526044015b60405180910390fd5b61027c8282610630565b5050565b6000600254600160a01b900460ff1660018111156102a0576102a06107f1565b146102be576040516392d0a58b60e01b815260040160405180910390fd5b7f00000000000000000000000000000000000000000000000000000000000000003410156102ff5760405163b8a5b93560e01b815260040160405180910390fd5b60018054808201825560009182527fb10e2d527612073b26eecdfd717e6a320cf44b4afac2b0732d9fcbe2b7fa0cf60180546001600160a01b0319163390811790915560405190917f819fbd717c9d0b421352c5116a644ca68ba176960c33f406f08d98a27370ca2791a2565b600061038660405180602001604052806000815250610555565b509050806103bd5760015460025460405163ab3439a760e01b81526102699247929091600160a01b90910460ff1690600401610aae565b6002805460ff60a01b1916600160a01b1790556000547f0000000000000000000000000000000000000000000000000000000000000000906103ff9042610ad1565b101561040a57600080fd5b6040516305d3b1d360e41b81527f0000000000000000000000000000000000000000000000000000000000000000600482015267ffffffffffffffff7f00000000000000000000000000000000000000000000000000000000000000001660248201526003604482015263ffffffff7f0000000000000000000000000000000000000000000000000000000000000000166064820152600160848201526000907f00000000000000000000000000000000000000000000000000000000000000006001600160a01b031690635d3b1d309060a4016020604051808303816000875af11580156104fd573d6000803e3d6000fd5b505050506040513d601f19601f820116820180604052508101906105219190610af2565b60405190915081907fcd6e45c8998311cab7e9d4385596cac867e20a0587194b954fa3a731c93ce78b90600090a250505050565b6000606060007f00000000000000000000000000000000000000000000000000000000000000006000544261058a9190610ad1565b10159050600080600254600160a01b900460ff1660018111156105af576105af6107f1565b600154911491504715159015158380156105c65750825b80156105cf5750815b80156105d85750805b60408051808201909152600381526203078360ec1b6020820152909890975095505050505050565b60006001828154811061061557610615610b0b565b6000918252602090912001546001600160a01b031692915050565b6000600180805490508360008151811061064c5761064c610b0b565b602002602001015161065e9190610b21565b8154811061066e5761066e610b0b565b600091825260208083209190910154600280546001600160a81b0319166001600160a01b039092169182179055604080519384529183019182905291519192506106bb9160019190610777565b504260009081556002546040516001600160a01b039091169047908381818185875af1925050503d806000811461070e576040519150601f19603f3d011682016040523d82523d6000602084013e610713565b606091505b50509050806107355760405163a1d04b3960e01b815260040160405180910390fd5b6040516001600160a01b03831681527fb112587e57bfa970257f3d54fc52859c6300f6bd7a982462c320fed45c2530ed9060200160405180910390a150505050565b8280548282559060005260206000209081019282156107cc579160200282015b828111156107cc57825182546001600160a01b0319166001600160a01b03909116178255602090920191600190910190610797565b506107d89291506107dc565b5090565b5b808211156107d857600081556001016107dd565b634e487b7160e01b600052602160045260246000fd5b6002811061082557634e487b7160e01b600052602160045260246000fd5b9052565b602081016108378284610807565b92915050565b634e487b7160e01b600052604160045260246000fd5b604051601f8201601f1916810167ffffffffffffffff8111828210171561087c5761087c61083d565b604052919050565b6000806040838503121561089757600080fd5b8235915060208084013567ffffffffffffffff808211156108b757600080fd5b818601915086601f8301126108cb57600080fd5b8135818111156108dd576108dd61083d565b8060051b91506108ee848301610853565b818152918301840191848101908984111561090857600080fd5b938501935b838510156109265784358252938501939085019061090d565b8096505050505050509250929050565b6000806020838503121561094957600080fd5b823567ffffffffffffffff8082111561096157600080fd5b818501915085601f83011261097557600080fd5b81358181111561098457600080fd5b86602082850101111561099657600080fd5b60209290920196919550909350505050565b600060208083850312156109bb57600080fd5b823567ffffffffffffffff808211156109d357600080fd5b818501915085601f8301126109e757600080fd5b8135818111156109f9576109f961083d565b610a0b601f8201601f19168501610853565b91508082528684828501011115610a2157600080fd5b8084840185840137600090820190930192909252509392505050565b821515815260006020604081840152835180604085015260005b81811015610a7357858101830151858201606001528201610a57565b506000606082860101526060601f19601f830116850101925050509392505050565b600060208284031215610aa757600080fd5b5035919050565b8381526020810183905260608101610ac96040830184610807565b949350505050565b8181038181111561083757634e487b7160e01b600052601160045260246000fd5b600060208284031215610b0457600080fd5b5051919050565b634e487b7160e01b600052603260045260246000fd5b600082610b3e57634e487b7160e01b600052601260045260246000fd5b50069056fea264697066735822122043a604d22738ad066c2b381e7a0ad03083ffa1028814530e8c8b696d78c1b3d664736f6c63430008130033",
    "linkReferences": {}
  },
  "methodIdentifiers": {
    "checkUpkeep(bytes)": "6e04ff0d",
    "enterRaffle()": "2cfcc539",
    "getEntranceFee()": "09bc33a7",
    "getLastTimeStamp()": "c1c244e8",
    "getLengthOfPlayers()": "0ea3df38",
    "getPlayer(uint256)": "e55ae4e8",
    "getRaffleState()": "115cbaf5",
    "getRecentWinner()": "473f1ddc",
    "performUpkeep(bytes)": "4585e33b",
    "rawFulfillRandomWords(uint256,uint256[])": "1fe543e3"
  },
  "id": 27
}